{
	"data": {
		"bytecode": {
			"linkReferences": {},
			"object": "6080604052348015600f57600080fd5b50606180601d6000396000f3fe608060405260043610601c5760003560e01c8063b058ed69146021575b600080fd5b60276029565b005b56fea2646970667358221220dcea63a9e71b935c093f4c68a0eaa16fe43266da6bcaabd5a21e2a5d33d17cf064736f6c63430006000033",
			"opcodes": "PUSH1 0x80 PUSH1 0x40 MSTORE CALLVALUE DUP1 ISZERO PUSH1 0xF JUMPI PUSH1 0x0 DUP1 REVERT JUMPDEST POP PUSH1 0x61 DUP1 PUSH1 0x1D PUSH1 0x0 CODECOPY PUSH1 0x0 RETURN INVALID PUSH1 0x80 PUSH1 0x40 MSTORE PUSH1 0x4 CALLDATASIZE LT PUSH1 0x1C JUMPI PUSH1 0x0 CALLDATALOAD PUSH1 0xE0 SHR DUP1 PUSH4 0xB058ED69 EQ PUSH1 0x21 JUMPI JUMPDEST PUSH1 0x0 DUP1 REVERT JUMPDEST PUSH1 0x27 PUSH1 0x29 JUMP JUMPDEST STOP JUMPDEST JUMP INVALID LOG2 PUSH5 0x6970667358 0x22 SLT KECCAK256 0xDC 0xEA PUSH4 0xA9E71B93 0x5C MULMOD EXTCODEHASH 0x4C PUSH9 0xA0EAA16FE43266DA6B 0xCA 0xAB 0xD5 LOG2 0x1E 0x2A 0x5D CALLER 0xD1 PUSH29 0xF064736F6C634300060000330000000000000000000000000000000000 "
		},
		"deployedBytecode": {
			"linkReferences": {},
			"object": "608060405260043610601c5760003560e01c8063b058ed69146021575b600080fd5b60276029565b005b56fea2646970667358221220dcea63a9e71b935c093f4c68a0eaa16fe43266da6bcaabd5a21e2a5d33d17cf064736f6c63430006000033",
			"opcodes": "PUSH1 0x80 PUSH1 0x40 MSTORE PUSH1 0x4 CALLDATASIZE LT PUSH1 0x1C JUMPI PUSH1 0x0 CALLDATALOAD PUSH1 0xE0 SHR DUP1 PUSH4 0xB058ED69 EQ PUSH1 0x21 JUMPI JUMPDEST PUSH1 0x0 DUP1 REVERT JUMPDEST PUSH1 0x27 PUSH1 0x29 JUMP JUMPDEST STOP JUMPDEST JUMP INVALID LOG2 PUSH5 0x6970667358 0x22 SLT KECCAK256 0xDC 0xEA PUSH4 0xA9E71B93 0x5C MULMOD EXTCODEHASH 0x4C PUSH9 0xA0EAA16FE43266DA6B 0xCA 0xAB 0xD5 LOG2 0x1E 0x2A 0x5D CALLER 0xD1 PUSH29 0xF064736F6C634300060000330000000000000000000000000000000000 "
		},
		"gasEstimates": {
			"creation": {
				"codeDepositCost": "19400",
				"executionCost": "75",
				"totalCost": "19475"
			},
			"external": {
				"createOffer()": "98"
			}
		},
		"methodIdentifiers": {
			"createOffer()": "b058ed69"
		}
	},
	"abi": [
		{
			"inputs": [],
			"name": "createOffer",
			"outputs": [],
			"stateMutability": "payable",
			"type": "function"
		}
	]
}